:020000040000FA
:10000000FC7F002001060000F1050000F50500005E
:1000100000000000000000000000000000000000E0
:10002000000000000000000000000000F9050000D2
:100030000000000000000000FD0500004107000076
:1000400010B5064C2378002B07D1054B002B02D0AE
:10005000044800E000BF0123237010BD5C000020B5
:1000600000000000A018000008B5084B002B03D0CA
:100070000748084900E000BF07480368002B03D089
:10008000064B002B00D0984708BDC046000000007A
:10009000A0180000600000205800002000000000B0
:1000A000154A164B1178002909D115491878097895
:1000B0004118C9B21970802012498002C8611178B4
:1000C0000131C9B211701978F02902D819780929BB
:1000D00009D80B4908784042C0B2087018780978EE
:1000E0004118C9B2197012781B789A4203D1802244
:1000F000044B9202DA617047780000200100002072
:10010000000000200044004110B5C3699C07FCD4E6
:1001100003680224A3430360C46901231C42FBD18A
:100120000468234303600368DC07FCD4C46901232B
:100130001C42FBD1C469DC401C42F7D1084B1A4376
:100140000260C3695A07FCD4C0239B0243608181CB
:10015000C3699C07FCD4036802221343036010BDEB
:1001600004000040037EDA07FCD5018570470000DB
:10017000027E01235107FBD5428B1A4207D1428BE5
:10018000DA401A4203D1428B92081A4202D0034B42
:1001900001221A70008DC0B27047C046790000205D
:1001A00070B50368041C988B1A1C0821FF320842A2
:1001B00026D0802099839872112353704021144BCC
:1001C000917150715E68134DC0202E40800506432A
:1001D0005E605E693540284358610F4818600F48DB
:1001E00018615D680E4828408025AD02284358609C
:1001F0005868800B8003586000235171237105E01B
:10020000137ADA0602D5201C00F0D4FA207970BDEA
:1002100098010020FFFFFF8F9800002018010020A8
:10022000FF3F00F0002303714371044B01608360C2
:100230000B78022213430B707047C046A1010000E7
:1002400038B5364B2021DA6901200A43DA61344B94
:1002500006241A7802431A70324B0F221978914300
:1002600019701978214319702F490C7820430870B0
:1002700019780A401A701A7860210A431A702B4BB9
:100280002B4A5A805A7852B2002AFBDB294B0121B3
:100290001A780A431A709A78D107FCD42648026863
:1002A000510B1F221140914200D1052111408C01B8
:1002B0001D8D22492940214319850468A10C0A405B
:1002C0001F2A00D11D221C8D1F210A408C4322436E
:1002D0001A8502680721D20D0A408A4200D1032202
:1002E0000A40188D1103164A02400A431A851978EC
:1002F0007F220A401A701A78042112480A431A70A1
:1003000058621A890C218A431A811A8901218A4369
:100310001A810021802201F040F938BD000400401C
:10032000584400413C44004159440041000C004005
:100330000640000000500041246080003FF8FFFFAD
:10034000FF8FFFFF98010020F7B5141C1F4A5F01C3
:1003500001971D1CD319061C5869271C4000400F2B
:1003600003301033C74006D00F1C80225968120694
:100370000A435A6009E02F1C7B1E9F41144BBF01AA
:10038000FF18381C221C01F0FFF801990F480835AE
:1003900042181761131C5269A104920B890C920335
:1003A0000A435A6159690B4A0A405A616B01F318B2
:1003B0000222DA715979802252420A435A716B0142
:1003C000F318DB799A07FAD5201CFEBD98010020AE
:1003D00018010020FF3F00F0F8B51A4E051C3378D5
:1003E000141C002B12D1184B184A1A645A6C920B29
:1003F00092035A64586C164A02405A64A2235B0066
:10040000EA5C40200243EA54012333704827FF3757
:10041000EA5D0123134012D00B4B5A6C9204920CEC
:10042000A24202D25C6CA404A40C081C221C074942
:1004300001F0AAF80123EB550023337000E01C1CE7
:10044000201CF8BD7A00002098010020D800002070
:10045000FF3F00F0FF3083792022002900D11022D5
:100460001343837170470000084BFF305A69920BA9
:1004700092035A6102230372827980235B42134301
:100480008371037A9A07FCD57047C0469801002013
:1004900080235B421943C9B28172704770B5A023B3
:1004A00003225B00C254134B134A5C6CC0211440FE
:1004B00089050C4346255C64FF35402444550F4DA7
:1004C00030261D6490256D0046555D6B154029430F
:1004D000922559636D0080214155094D1D63B0255A
:1004E0006D0044555C6F22405A67B2235B00C154D3
:1004F00070BDC04698010020FFFFFF8FD80000208C
:1005000058010020024B5B785BB2002BFADB70478E
:10051000000C0040024BDB68DA06FBD57047C04692
:1005200000080040F8B5264B1E215A6802268A436F
:10053000244C32435A60A660FFF7E4FF224B234D60
:100540006360FFF7DFFFAE84FFF7E4FF204B1B681B
:100550009B0E3F2B00D11F231E4A9B0213431E4AB2
:100560000026EA62AB62AE84FFF7D4FF1B4B022782
:10057000AB84FFF7CFFFAB8C3B43AB84FFF7CAFFE5
:1005800063883F2293431F43678062888023DB0197
:1005900013436380A660FFF7B5FF114B6360FFF75D
:1005A000B1FF104B104AC0215A60104A0906106A68
:1005B0000002000A0143116207229E601A60F8BD22
:1005C00000400041000C004006000100000800400F
:1005D00024608000FF01000080BB0A1C240500008D
:1005E0000007030010E000E0E703000000ED00E07A
:1005F0000EBEFEE70DBEFEE705BEFEE702BEFEE74D
:100600000E4A0F4838B5824204D10E4A0E4B93422F
:100610000ED10AE00D4C9442F7D00023D118884245
:10062000F3D9E55804330D60F8E700F011F804E061
:100630009342FAD2002102C3FAE7FEE7000000204D
:100640005C000020A80300205C000020A41800002B
:1006500038B5304B1A681C1C013221D02E4A191DA6
:100660001160D9B200291BD12C4A10780122104008
:100670002B4A0AD115682B498D4201D110600FE039
:100680001160294901390029FCD11160226882F3E7
:100690000888FF229343254A93601E4B5B681847E6
:1006A000FFF740FF62B600F09DFD00F04FF8204BD1
:1006B000802292029A601F4B1F4A041C5A601B4AF8
:1006C000C021106A09060002000A014311620022DB
:1006D0009A6007221A60A368201C9847174B0028CD
:1006E00001D001221A701A78002A05D0002000F0EB
:1006F0008BFA00F003FBFCE71B78002BEBD100F03A
:10070000E5FD0028E7D0012000F07EFA00F0F6FABF
:10071000FCE7C0460020000018020020380400401A
:10072000FC7F00203581730748E8010000ED00E000
:100730000044004110E000E0E70300007B000020DF
:1007400008B5FFF7ADFC00F0C3FA08BD10B5054BC6
:10075000054C2360FFF774FD201C2168FFF762FD44
:10076000201C10BD005000411C02002070B5051C6B
:10077000C0B0081C161C0C1C00F017FF40006A4695
:10078000032302305370107076080123E218013AF7
:1007900011785A00002906D1281C69460023FFF76A
:1007A000D3FD40B070BDB342F6DA684681520133E2
:1007B000ECE70000F7B5BA4A04681378B949271C7A
:1007C000FF37051C102038720B705378B648B74EAF
:1007D000037093783380D178338809020B433380D8
:1007E0001179B34B19805179188809020843188090
:1007F0009079B0490880D2790888120202430A80B1
:1008000040227A71A84F3A78A64F120238780F1C0E
:100810000243A9488446181C624500D1C2E020DC8E
:10082000802149008A4200D16EE109DC812A00D191
:1008300092E0822A00D195E0802A00D064E18BE02A
:1008400081235B009A4200D1CFE000DA58E1C02357
:100850009B009A4200D157E1984B9A4200D14FE158
:1008600052E190231B019A4269D015DCD023DB00B2
:100870009A4222D088231B019A4269D0A023DB0030
:100880009A4200D040E1201CFFF7EEFD3188286835
:1008900089B2FFF7FDFD3BE1894B9A4200D12FE180
:1008A00000DC31E1874B9A4200D11DE1864B9A4230
:1008B00000D029E133886B7122E133881B0A012BB8
:1008C00008D10B8812222868934201D80A8892B274
:1008D0007E4911E133881B0A022B08D10B88432281
:1008E0002868934201D80A8892B2794904E1338892
:1008F0001B0A032B00D007E13388DBB2012B17D092
:10090000002B07D0022B00D0FEE00A882868D2B264
:10091000704911E0042201A86F4900F035FE3B88C0
:1009200004222868934201D83A8892B201A9E3E0F0
:100930000A8828686949D2B2FFF718FFE8E03388CF
:10094000201C2B71FFF790FD201CFFF7A7FDDFE0B7
:10095000291C01C90122CFE0614900230B802868CE
:100960000222CAE05E4900220A8018885022104004
:100970005C4A10701E880F203040188018880328A9
:1009800000D9C1E012781B8808335B01E418A37911
:10099000002A01D09B0600E0DB06DB0F0B802868F5
:1009A0000222A9E019887F2291434E4AC9B21170F0
:1009B00018880F21014019803188002900D0A3E058
:1009C0001988002900D19FE01988032900D99BE0EC
:1009D00012781B8808335B01E318002A02D020221A
:1009E0005A718DE0102159718AE002887F239A4361
:1009F0003C4BD2B21A7001880F220A400280328822
:100A0000002A00D080E00288002A00D17CE0028821
:100A1000032A00D978E01B78002B1FD00388083305
:100A20005B01E3189B799A066AD503882022083374
:100A30005B01E3181A71038808335B01E318DB7963
:100A40005F065DD50388402208335B01E318DA7145
:100A50000388022208335B01E3181EE00388083391
:100A60005B01E3189B79D9064AD503881022083325
:100A70005B01E3181A71038808335B01E318DB7923
:100A80009A063DD50388202208335B01E318DA710A
:100A90000388012208335B01E3181A7130E0C04675
:100AA000980000207D0000208200002084000020AB
:100AB00086000020800000200203000001030000E7
:100AC00021200000A121000021220000F4150000D7
:100AD00004000020E0150000D0150000D41500002F
:100AE0007E0000207C0000200B88082228689342AA
:100AF00001D80A8892B207490023FFF725FC07E0D6
:100B0000201CFFF7B1FC03E0201C0121FFF7A2FC31
:100B1000F7BDC0464800002007B5054B01220190F3
:100B200001A91868131CFFF70FFC01200EBDC04679
:100B30001C02002013B5054B6C4607341868211CB5
:100B40000122FFF749FC207816BDC0461C02002098
:100B500010B5074C201CFFF723FB031C0020834229
:100B600005D022684823FF33D05C0123184010BD14
:100B70001C02002010B5054A0C1C031C191C10682F
:100B80000123221CFFF7E0FB201C10BD1C020020EB
:100B900070B5084C061C201C0D1CFFF701FB002340
:100BA000984205D02068311C2A1CFFF715FC031C55
:100BB000181C70BD1C020020F8B50C4C051C201C34
:100BC0000E1CFFF7EDFA0023271C341C98420AD0B4
:100BD000002C07D0291C221C3868FFF7FDFB241AC3
:100BE0002D18F5E7331C181CF8BDC0461C02002068
:100BF00008B5031C081C111C9847024B64221A807C
:100C000008BDC0468C000020012805D1054B064ACE
:100C10001A60064B187004E0002802D1044A014B08
:100C20001A6070478C0200202816000094000020F3
:100C30007416000030B50A1C1C4985B00978031CE5
:100C400000292AD0042A01D1006804E0022A01D137
:100C5000008800E00078520004A98B180B3B9C1A16
:100C6000A3420BD00F210140092902D83025294386
:100C700000E0373119700009013BF1E701A9302389
:100C80000B7078234B700A208B1898700D20D87049
:100C9000074B04321B68D86803E005490968C86837
:100CA000191CFFF7A5FF05B030BDC0468800002025
:100CB0008C02002072B6EFF30883044A13600368C5
:100CC00083F30888436818477047C04690020020A5
:100CD000084B1A88002A03D01A88013A92B21A8067
:100CE000054B1A88002A03D01A88013A92B21A805A
:100CF0007047C0468C0000208A000020F0B591B0FB
:100D000008A9CC4A0B1C31CA31C351CA51C360CAAD
:100D100060C3C94BC9489A687A255203520F9200A2
:100D20005258C74902609C68A4B262430C60C5492E
:100D300000240A60C44A1460C44C2570C44CC54DDC
:100D40002368281C1B6940219847002802D0C24B09
:100D500064221A80C14B00221860C14B1D60C14B38
:100D6000C04DBE4F1A602A683B689A42E6D2BC4B1F
:100D70001B681A78FF2A00D114E2232A00D0EBE185
:100D8000B94E3378002B06D0B14BB8491B6802220C
:100D9000D868FFF72DFFAD4B1B78532B3CD13B6838
:100DA0002A6893421ED9AE4801322A609A1AB04B83
:100DB00001681B6801310160AE4E9A4201D2326077
:100DC00000E03360A04832680068049000F0DCFB6B
:100DD000336829685A182A60A14A1668F118116008
:100DE000A54A13702B68013B2B609D4B1A68013A92
:100DF0001A60A14B9E4A1B7811688B420AD2226866
:100E00009148C91A006892699047002802D0924B15
:100E100064221A80C0468DE1522B0AD18A48944A36
:100E20002368006811685B69039098476422934BBC
:100E30000DE04F2B05D1844B8D4A1B6812681A7048
:100E400078E1482B05D1804B894A1B6812681A80CB
:100E500070E1572B05D17C4B854A1B6812681A60DC
:100E600068E16F2B03D1784B0121186807E0682BEC
:100E700008D1754B7E481B6802211B880360FFF771
:100E8000D9FE57E1772B06D16F4B79481B680421B7
:100E90001B680360F3E7472B13D1754B1868FFF706
:100EA00009FF774B1B6883F3088862B6754B1B7884
:100EB000002B00D13EE1664B06201B681B6898475B
:100EC00038E1542B04D101233370614B1B6864E07B
:100ED0004E2B0CD13378002B06D15D4B63491B6838
:100EE0000222D868FFF784FE0023337022E1562BDC
:100EF00057D123686449D8680122FFF779FE236837
:100F00006249D8680322FFF773FE614D2368291CEC
:100F1000D8680122FFF76CFE23685E49D8680D226D
:100F2000FFF766FE2368291CD8680122FFF760FEE0
:100F30004B4F4C4D5849002339602B603A1C281CFC
:100F400013685E1C16601B780593002B03D00368A2
:100F500001330360F4E73E4E2A683368D868FFF730
:100F600047FE33684A49D8680122FFF741FE0599D8
:100F700029604A4939603A4A1368581C10601B7846
:100F8000002B04D0374B1A6801321A60F3E733683C
:100F90002A68D868FFF72CFE3368D86833490222E4
:100FA000C6E0334A582B17D1244E264D36681368B5
:100FB0002A68B10093420AD21F4D5808E8613848A8
:100FC00028801D4D287DC607FBD55B18F2E7204B16
:100FD00034491B68D868AAE0592B79D112681A4B9A
:100FE0003149002A02D11B680B606CE0124D086881
:100FF00019686B68104E8025AB4392087360002A15
:1010000061D02A4B0C4D2B800B4E337DDD07FBD579
:1010100000230A4D2D680195AD08AB4203D3244D42
:10102000054E358046E09342F9D09D004659013384
:101030004E51EEE708160000004000414402002037
:101040003C020020380200208802002034020020E8
:101050008C020020480200208A0000202C02002080
:1010600030020020400200208800002068160000A6
:101070009402002098020020280200208C0000200A
:101080009002002094000020441600006D1600001D
:101090004616000090160000481600005416000086
:1010A00002A5FFFF5D1600009000002044A5FFFF91
:1010B00004A5FFFF3F4E357DEE07FBD59D00491986
:1010C0004019D21A9BE73C4B3C491B68D8682EE07C
:1010D0005A2B2FD13A4B17681D680026EF19BD42D5
:1010E00006D02878311C00F013F90135061CF6E70C
:1010F000314B34491B680122D868FFF779FD07237B
:101100000F223240111C36093031092A00DD073127
:101110001820C0186A468154013BF1D2236806A901
:10112000D8680822FFF764FD23682749D86803229E
:10113000FFF75EFD254B7A221A70254B00221A60BC
:10114000244B1B7893422DD01B4B23491B68012253
:10115000D868FFF74DFD25E0111C3039C8B21C4B93
:10116000092804D81D682A01114319601AE0111CCE
:101170004139052903D81E68373A310106E0111CB0
:101180006139052904D81868573A01010A4308E073
:101190002C2A03D10A4A1968116001E00B490A7030
:1011A00000221A600D4B1A6801321A600C4B1A6843
:1011B0000132D5E5004000418C020020611600009C
:1011C0008802002065160000671600003402002027
:1011D00094020020880000206B16000040020020CE
:1011E0003002002010B51C4B01201A780324024362
:1011F0001A701A4B0F2219789143197019782143EC
:10120000197017490C782043087019780A401A7031
:101210001A7830210A431A70124B80211A6A0A4345
:101220001A62114B114A5A805A7852B2002AFBDBDB
:10123000C4220F480F499203FEF766FF0E4A0023AF
:1012400013700E4A13700E4A13700E4A13700E4A32
:1012500013700E4A137010BDD6440041BB440041C8
:10126000D744004100040040000C00401940000039
:10127000001C00422AF600009C02002023030020EC
:101280009D020020A0020020240300202103002052
:1012900008B5C1B20248FEF765FF012008BDC0468F
:1012A000001C0042024B187E4007C00F7047C0462A
:1012B000001C004208B5FFF7F5FF0028FBD00248EC
:1012C000FEF756FF08BDC046001C004208B5FFF7F8
:1012D000E9FF0023984205D0FFF7ECFF031C233BF6
:1012E0005A425341181C08BD70B5041C0D1C461809
:1012F000B44204D02078FFF7CBFF0134F8E7281C74
:1013000070BD10B5041CFFF7D5FF2070012010BD83
:101310000B0A5840034B4000C05A0902484080B2B3
:101320007047C0469E160000F7B50024051C0F1C30
:10133000261CBC4220D0FFF7BDFF114BC0B21B786A
:101340000190002B1AD1311CFFF7E2FF0D4B061C58
:101350001A88002A04D10C4A11782A1C002907D0C7
:1013600001996A1C2970802F02D1198801391980CE
:101370000134A4B2151CDCE7301C00E00120FEBDE6
:10138000210300209E02002022030020F0B53E4EE3
:1013900085B0002203900C1C32703C4B914201D16D
:1013A000012201E03A490C801A707F231C4201D0CF
:1013B00080349C43FFF77EFF3378C0B2002B07D008
:1013C00000253570FFF776FF3378C0B2AB4236D1D7
:1013D000432803D0712853D01528EBD10123009363
:1013E0000120FFF755FF0098FFF752FF0099802575
:1013F000C843C0B2FFF74CFF039B00270293244A67
:101400001388002B1DD1214901930978002918D197
:101410000198FFF73DFF391C0198FFF779FF013D67
:10142000071C002DEBD1000AC0B2FFF731FFF8B264
:10143000FFF72EFFFFF73EFF3378002B0AD0357001
:101440001FE00299013B09781380029B019101334F
:101450000293DDE7C0B2062807D1009B0399013350
:10146000DBB280310093803C0391002CB8D1042082
:10147000FFF70EFFFFF71EFF044B01251C7000E075
:101480000025281C05B0F0BD210300202203002008
:101490009E020020F0B5384C87B0002301902370E5
:1014A000994201D1012301E0344A1180344A642673
:1014B00013704320FFF7ECFE324FFFF7F3FE0028D6
:1014C00003D1002F03D0013FF7E7002F03D1013EE6
:1014D000002EEED14DE00125FFF7ECFE2378002B26
:1014E00038D1C0B20290012805D004283DD1062091
:1014F000FFF7CEFE39E005AE0221301CFFF714FFE6
:1015000001988021FFF710FF23780390002B18D15A
:10151000FFF7D0FE0702FFF7CDFEBFB223783F18DA
:10152000BFB2012B0DD0039B9F4207D13378AB4252
:1015300004D1EB437278DBB29A4204D01820FFF753
:10154000A7FE002303E00620FFF7A2FE029B2278FD
:10155000002A02D0002626700BE0012B05D1019A4B
:101560006B1C8032DDB20192B6E7054A002313708E
:101570000126301C07B0F0BD210300209E02002090
:101580002203002000350C0010B50023934203D045
:10159000CC5CC4540133F9E710BD031C821893429C
:1015A00002D019700133FAE770470023C25C01339F
:1015B000002AFBD1581E7047F8B5C046F8BC08BCDD
:1015C0009E467047F8B5C046F8BC08BC9E467047BA
:1015D0000403090441726475696E6F204C4C43002A
:1015E00041726475696E6F204E4F4E4120574C41D9
:1015F0004E0000001201000202000040412357008B
:1016000000020102000100000800000010000000BC
:1016100020000000400000008000000000010000E9
:10162000000200000004000091120000B51200004A
:10163000A5120000E9120000031300008D13000042
:10164000951400007600200041707220313920325C
:101650003031390031343A33383A343800580A0DD1
:1016600000590A0D005A00230A0D003E00322E30A8
:1016700000000000190B0000350B0000510B0000AA
:10168000750B0000910B0000750B0000B90B0000FA
:101690005B41726475696E6F3A58595A5D0000007B
:1016A0002110422063308440A550C660E770088155
:1016B00029914AA16BB18CC1ADD1CEE1EFF13112CC
:1016C000100273325222B5529442F772D6623993A5
:1016D00018837BB35AA3BDD39CC3FFF3DEE362241C
:1016E000433420040114E664C774A44485546AA5F5
:1016F0004BB528850995EEE5CFF5ACC58DD55336AC
:10170000722611163006D776F6669556B4465BB744
:101710007AA719973887DFF7FEE79DD7BCC7C4487B
:10172000E5588668A7784008611802282338CCC994
:10173000EDD98EE9AFF9488969990AA92BB9F55A0B
:10174000D44AB77A966A711A500A333A122AFDDBE4
:10175000DCCBBFFB9EEB799B588B3BBB1AABA66CDB
:10176000877CE44CC55C222C033C600C411CAEED34
:101770008FFDECCDCDDD2AAD0BBD688D499D977EEB
:10178000B66ED55EF44E133E322E511E700E9FFF84
:10179000BEEFDDDFFCCF1BBF3AAF599F788F88913A
:1017A000A981CAB1EBA10CD12DC14EF16FE180101E
:1017B000A100C230E3200450254046706760B98321
:1017C0009893FBA3DAB33DC31CD37FE35EF3B1026E
:1017D0009012F322D2323542145277625672EAB531
:1017E000CBA5A89589856EF54FE52CD50DC5E234BE
:1017F000C324A01481046674476424540544DBA701
:10180000FAB79987B8975FE77EF71DC73CD7D3260D
:10181000F2369106B01657667676154634564CD990
:101820006DC90EF92FE9C899E9898AB9ABA944585D
:10183000654806782768C018E1088238A3287DCB60
:101840005CDB3FEB1EFBF98BD89BBBAB9ABB754AAD
:10185000545A376A167AF10AD01AB32A923A2EFDF0
:101860000FED6CDD4DCDAABD8BADE89DC98D267CFD
:10187000076C645C454CA23C832CE01CC10C1FEF40
:101880003EFF5DCF7CDF9BAFBABFD98FF89F176E4D
:10189000367E554E745E932EB23ED10EF01E000081
:1018A0000000000001140000090243000201008052
:1018B00032090400000102020000052400100104A6
:1018C0002402000524060001052401000107058308
:1018D000030800FF09040100020A00000007058157
:1018E00002400000070502024000000000C20100A3
:1018F0000000080069000000410000000000000036
:10200000008000206D2F0000552F0000552F00008C
:1020100000000000000000000000000000000000C0
:10202000000000000000000000000000552F00002C
:102030000000000000000000552F0000C12F00002C
:10204000552F0000552F0000552F0000552F000080
:10205000552F0000552F0000552F0000592F00006C
:10206000552F0000552F0000552F0000892E00002D
:10207000792E0000552F0000692E0000552F00001A
:10208000552F0000552F0000552F0000552F000040
:1020900000000000552F0000552F0000552F0000B4
:1020A000552F0000552F0000552F0000552F000020
:1020B0000000000010B5064C2378002B07D1054B1B
:1020C000002B02D0044800E000BF0123237010BDA4
:1020D000D400002000000000305A0000044B10B56E
:1020E000002B03D00349044800E000BF10BDC046E8
:1020F00000000000D8000020305A00001FB5140076
:1021000004220023019203AA00920A000100632026
:10211000039300F0F1FC03982060C043C00F40B26D
:1021200004B010BD13B5040002F016FD01AAC1B23F
:102130002000FFF7E3FFC317181AC00F16BDF0B554
:102140000668436885B01400B218050003919A42EE
:1021500003D900249E4210D29C1BAF68380002F0C5
:10216000FBFC039BC2B20093019433003900612051
:1021700000F0C2FC2B681B192B60200005B0F0BDDD
:1021800070B585680400280002F0E6FC221DC1B28B
:102190002800FFF7B3FF606870BD37B5002485687D
:1021A0000460280002F0D8FC2900C2B20194009417
:1021B0002300622000F0A0FC37BD000030B5FF25F1
:1021C000064C8A18914208D00B78013143402B40CD
:1021D0009B001B59000A5840F4E730BDFC4B00003F
:1021E000F0B50C24AFB000AF01F01AF802F09EFB7E
:1021F000012000F023FF01211A2001F0BBF801218A
:102200001A2001F003F901211B2001F0B3F801218C
:102210001B2001F0FBF87849381902F08FFA774853
:1022200000F020FAFF2800D196E000F017FA082607
:1022300030250100381902F0A0FABB19704958196D
:1022400002F07CFABB195919381902F0BEFABB1911
:102250000400581902F02AFA002C7DD1694D286833
:10226000FFF760FF002800D188E029680825B6192B
:102270007B19981900F047FA1C2379197819C918A5
:1022800014228019FFF75BFF0823FB1898197D6A59
:10229000FFF776FF0838854206D00023BB61103374
:1022A0000822BA18D01855E008230125BB616D42F9
:1022B0007A6A1300803BA34213D9082030263B18CA
:1022C0009919102338188022C018FFF738FF08200A
:1022D0003B18802228009919FFF770FF8034050011
:1022E000E6E7082030263B18991910233818121BEE
:1022F000C018FFF724FF08207B6A1A1B3B189919A6
:102300002800FFF75BFFC043BB6A8342C5D13E4B49
:10231000FA6A9A42C1D1E822C02114230825102468
:102320009202C9013948BB6100F0C8FC7B19181939
:10233000FFF726FFC02102007B191819143AC901C2
:1023400000F084F800F03AF900F092F80023BB6145
:102350007B191819FFF721FFC023DB011A6882F3EC
:1023600008882B4A93602B4B1B6818470C23F818DE
:1023700002F09CF90020BD462FB0F0BD264C20682D
:10238000FFF7D0FE0028E7D0082521681C247B1920
:10239000181900F0B8F97B191819FFF7F1FE80231E
:1023A000DB019842D8D9C0217B621C4BC901C418FB
:1023B00022001648C02500F081FC8026ED0108218E
:1023C00030237818C1181C20283BFB18320018183D
:1023D000FFF7B5FE08213022791833008A180B4820
:1023E000290000F01BFC0E4BEB1880359C42E6D810
:1023F00000237B621C3353E701500000C011002012
:10240000FC4F00000800002057804123F800002006
:1024100000ED00E0046000000400002000C0FFFFA9
:1024200080A0FFFF13B500240648230022002100EE
:10243000009401F0B1F822002100034800F0D6FB1F
:1024400013BDC046F0000020F8000020044B1960C6
:10245000044B1960044B1860044B1A607047C04667
:1024600020010020100100201C0100202401002078
:102470000C4970B50C4C0A6823680C489A180A601D
:102480000B49096809188A4209D90A4D0A4A29687C
:102490000A4800F0C3FB2B6822689B182B600023BE
:1024A000236070BD280100202C01002000E0FFFF08
:1024B000200100201001002030010020F800002041
:1024C000054A0649136810B5C85401331360402B00
:1024D00001D1FFF7CDFF10BD2C01002030010020FD
:1024E000F0B51E4B1E4F1B683A6885B09A4232D039
:1024F0001C4D2E68402E24D11B4B1C682368029370
:10250000029963684031994204D9029A00269A429E
:1025100011D29E1AA3681800039302F01DFB134BFF
:10252000C2B200930196029B0399612000F0E4FA85
:1025300023689B1923600E4A13689B1913600023BC
:102540002B602B68094AD05C01332B603B68013358
:102550003B6005B0F0BD01204042FAE724010020B5
:10256000700100200C0000201C01002078010020D8
:1025700074010020F7B5002426000190019B9E42C3
:1025800016DA0C4D0C4F2B68002B06D1FFF7A8FF75
:102590003860431C0DD080232B602A683B686400A0
:1025A0001340591E8B415210E4182A600136E5E7AA
:1025B0002000FEBDBC010020B8010020F7B50024BA
:1025C00020221E4D1E4B2A5501349C42FBD1012076
:1025D000FFF7D0FF431C30D000280CD00820FFF7B5
:1025E000C9FF0600431C28D0FFF76AFF631C2E5565
:1025F0005C05640DEBE70B20FFF7BCFF0600431CF6
:102600001BD00420FFF7B6FF03000190013314D064
:102610003700019BBA1B01339342D8DB7B055B0D6E
:10262000EB5C013718000093FFF74AFF6A46127807
:10263000631C2A555C05640DEBE7F7BDC001002063
:10264000EF07000007B50021034800910B000A00C6
:1026500000F0A2FF07BDC0461401002010B500F035
:1026600023FA10BD10B500F0F7F910BD07B5002131
:1026700004480B000A00009100F08EFF024B034A51
:102680001A6007BDC4110020C011002050C3000013
:1026900007B50021034800910B000A0000F07CFF01
:1026A00007BDC046CC11002007B5002103480091AA
:1026B0000B000A0000F070FF07BDC046D4110020D7
:1026C00007B50021034800910B000A0000F064FFE9
:1026D00007BDC046DC11002030B585B00C000500F8
:1026E00002F03AFA04210023019103A9C2B2009139
:1026F00063202900039300F0FFF903982060C04392
:10270000C00F05B030BD10B504000023A160080063
:10271000211D23606360FFF7DFFF200010BD000074
:1027200007B50021034800910B000A0000F034FFB8
:1027300007BDC046E411002007B500210348009101
:102740000B000A0000F028FF07BDC046EC11002076
:1027500010B504007822002102F01FF9200010BDFE
:1027600010B50C244C4304192068002805D002F051
:1027700001F9002363602360A36010BD70B50500FC
:102780000024210028000134FFF7EAFF0A2CF8D1C9
:10279000280070BD10B5054C2000FFF7D9FF044A92
:1027A0000449200002F016F810BDC046F4110020C4
:1027B000000000207D270000F8B51823234E244F89
:1027C0003370244C04333B70013B237000F04AFB10
:1027D000214D1A2804D801232B702378DB43237062
:1027E0001E4800F0ADFA3078012100F0C3FD3878C2
:1027F000002100F0BFFD2078012100F0BBFD012188
:102800001A2000F0B7FD01211A2000F0FFFD3078FA
:10281000012100F0FBFD2978207800F0F7FD0A2067
:1028200000F00CFC297801252078694000F0EEFDCD
:102830000B4800F003FC00211A2000F0E7FD002106
:102840001A2000F097FD074B1D70F8BD1200002004
:1028500010000020110000206C120020B81600208B
:10286000EE0200006D12002013B500246B465C716F
:102870001C71019A0B490C4800F08AFA0B4B21009D
:10288000187800F0C3FD00F0A3FB0400084B187893
:1028900000F0E8FD012804D000F09AFB001B04289A
:1028A000F4D913BD00127A00B816002012000020DF
:1028B0001000002010B5044B0121187800F0A6FD8F
:1028C000024800F081FA10BD12000020B816002066
:1028D00007B56B46D871D9790248C9B200F088FAB9
:1028E0000EBDC046B816002010B5034B187800F096
:1028F000B9FD0028F9D110BD1000002010B504006A
:10290000FF20FFF7E5FF207010BD70B50C0005003B
:102910000800FFF7F3FF2078401B4342584170BD89
:1029200013B56B46DC1D002320002370FFF7E6FF84
:10293000207816BD70B50500084CFFF7F1FFEF28B1
:1029400008D0013C002C01D0A842F6D1401B4342E4
:10295000584170BD01204042FBE7C046E90300003A
:1029600070B504000D0000201600FFF7B1FF6519D7
:10297000AC4204D02078FFF7ABFF0134F8E7012E1A
:1029800002D1EE20FFF7A4FF70BDF8B505000800E6
:102990000E0017002C00FFF79BFF631B9E4204DD17
:1029A0002078FFF795FF0134F7E7012F02D1EE20E1
:1029B000FFF78EFFF8BD10B50400FF20FFF788FF7A
:1029C000002C00D0207010BDF0B585B01F0002AB08
:1029D000DC1D00230500E020019116002370FFF7A5
:1029E000A9FF002802D1002005B0F0BD2000FFF7AC
:1029F00085FF802223781543AB42F4D12000FFF7F6
:102A00007DFF2378019A9342EDD13800FFF7D3FF81
:102A100035003A78AB1B9A4204DD2800FFF76EFFC1
:102A20000135F6E72100EE20FFF76FFF0120DBE71D
:102A300070B50400E0200D00FFF74AFF7F20204022
:102A4000FFF746FF2800FFF743FF002D02D1EE20DD
:102A5000FFF73EFF70BD0000124B13B51B78002B33
:102A600001D1FFF7A9FEFFF73FFFFFF7FDFE0021B1
:102A70002020FFF7DDFFFFF71DFFFFF735FFFFF712
:102A8000F3FE6B469C1DFF2323706B460022073329
:102A90001A70012122002020FFF796FFFFF70AFF9E
:102AA000207816BD6D120020114B13B51B78002B3A
:102AB00001D1FFF781FEFFF717FFFFF7D5FE0021D9
:102AC0003720FFF7B5FFFFF7F5FEFFF70DFFFFF724
:102AD000CBFE6B460022074C07331A7001212200FF
:102AE0003720FFF771FFFFF7E5FE200016BDC04657
:102AF0006D12002078120020F0B585B00193294BAB
:102B000006001B7800911400002B01D1FFF754FE42
:102B10003500603D6F426F410337FFF7E5FEFFF779
:102B2000A3FE39003000FFF783FF0022042101A833
:102B3000FFF72BFF002204210BA8FFF726FF6A1ED8
:102B400095412100EAB20098FFF71FFF602E04D1E3
:102B500001220B990A98FFF703FF0C34E4190327AD
:102B600025003D4003D0FFF7DBFE0134F8E7FFF717
:102B7000A1FE0F24FFF7B8FEFFF776FE0E236C448C
:102B80006B441D702570602E00D10A9323000A9AB1
:102B900001213000FFF718FFFFF78CFE00202056C0
:102BA00005B0F0BD6D12002007B50021034800916B
:102BB0000B000A0000F0F0FC07BDC04670120020B8
:102BC00010B5054A0549064800F010F80022054BEB
:102BD00005491A705A5410BD01040000005100004C
:102BE000841600207E1200200204000030B5094D3A
:102BF000094CAB685B035B0F9B001C590460AB681E
:102C000001619BB243606343A4008360C46042617E
:102C100030BDC0460040004100560000F7B5802698
:102C20001A4D01916F6803333E439B086E60002B81
:102C30002BD0174E2E802E7DF107FCD51E00076885
:102C4000991BBF088F4219D9002E17D0FF21177882
:102C50008C433C430F4957780C403F023C439778E4
:102C6000013E39040C4F2740D478BFB20F432406ED
:102C700001993C4310C101910432E0E7074B2B80DE
:102C80002B7DDB07FCD53300D1E7F7BD00400041C9
:102C900044A5FFFFFF00FFFFFFFF00FF04A5FFFFAC
:102CA000044B054A4908D9611A801A7DD207FCD520
:102CB0007047C0460040004102A5FFFF70B5040008
:102CC0000D001600E36829002000B34205D2FFF78B
:102CD000E7FFE368ED18F61AF4E7FFF7E1FF70BDD0
:102CE000037D002B04D14375837583610133037524
:102CF00070477FB5C36802AD04000E0002916A60A0
:102D00008B4203D1028AAB889A4218D02000062257
:102D100029000C3001F038FE206800F0B4FD6B791A
:102D2000227AE17900932068002300F04DFE2068AC
:102D30002979320000F078FD206800F09AFD7FBD0F
:102D400070B518260400FFF7CBFF33000821207967
:102D50000D4D4343EB18595600F09CFB33000821FE
:102D6000A0794343EB18595600F094FB0821607991
:102D70004643AD19695600F08DFB044B200006CB8D
:102D8000FFF7B7FF70BDC04620560000D4160020E4
:102D900007B5437D00910192002B07D09A070AD511
:102DA000EFF310835A425341837572B60099019A2A
:102DB000FFF79FFF07BDDB07F8D58369014A9BB288
:102DC0009360F3E700180040437D002B05D09A077D
:102DD00004D5837D002B00D062B67047DB07FCD59D
:102DE0008369024A9BB2D360F7E7C04600180040EF
:102DF00010B5006800F050FD10BD0000114A124BE4
:102E000012491360002353711371114A1160114963
:102E1000D36091800D2191710A3953741374137525
:102E2000D37111720C4AD3605374137413750B4B26
:102E3000D17113600A4B938019239371183B13725D
:102E40007047C046D416002000093D00941D0020A4
:102E50009C1600200C0B0000B8160020981D0020C6
:102E6000171600002120704710B5024801F037FB0B
:102E700010BDC046DC16002010B5024801F02FFB43
:102E800010BDC0461819002010B5024801F027FBFC
:102E900010BDC046541B0020F0B51F4985B01F4827
:102EA00000F038FC1E491F4800F034FC1E4D1F493D
:102EB000280000F02FFC1E4E1E49300000F02AFCB6
:102EC0001D491E4800F026FC1D4F1E49380000F029
:102ED00021FC0124032339000093019423000022E4
:102EE000194801F091FA00233100019300941D3339
:102EF0001E22164801F088FA19230393013B02931E
:102F0000163B01930094143317222900104801F056
:102F100037FA05B0F0BDC04600080042901D002001
:102F2000000C0042941D0020981D0020001000425B
:102F30009C1D00200014004200180042A01D00202B
:102F4000A41D0020001C0042DC16002018190020DF
:102F5000541B0020FEE70000034B10B51B68002B3C
:102F600000D0984710BDC046A81D002070B50F497D
:102F70000F4CA14204D100F089F8FFF731F9FEE7C8
:102F80000C4D00238D42F6D0CA18E818A24205D392
:102F9000094B8242EFD00949002204E00068043363
:102FA0001060F1E704C38B42FCD3E4E7000000208B
:102FB000D4000020345A0000D4000020DC2300207C
:102FC00010B500F060F8002801D100F051F810BDF4
:102FD000014B18687047C046AC1D0020F7B5134878
:102FE000012284461249134C8E68636805689B0E63
:102FF0001340019288686268019F920E3A406746CA
:103000003F6893420ED1BD420CD186420AD35B1970
:10301000FA254868AD00861B07486B437043000DD6
:10302000C018FEBD3D0013000600E3E7AC1D002004
:1030300010E000E000ED00E05555000070B5041E02
:1030400010D0FFF7CBFF050000F01CF8FFF7C6FF1C
:10305000054B401B9842F7D9FA23013C9B00ED1821
:10306000002CF3D170BDC046E7030000704700009C
:1030700010B5034A13680133136000F00FFB10BD55
:10308000AC1D002070470020704700001E22F0B5E4
:10309000504851494368514D93431A00022313434A
:1030A000436008238A691343FE228B612B68D20395
:1030B0009B0213404A4A13434A4A93611300042275
:1030C000DC681442FCD00124474A1470167826426A
:1030D00003D0567876B2002EF8DB01249460547841
:1030E00064B2002CFBDB414C5460547864B2002C79
:1030F000FBDB8224E4015480547864B2002CFBDBB7
:1031000002249C840E34DE682642FCD0384CDC62FB
:103110001024DE682642FCD02C68A40E3F2C00D17F
:10312000203C9E6A334FA4023E4034439C629C6A1A
:10313000314EA40AA40234439C62304CDC62002469
:103140009C841034DE682642FCD02D4C9C841024D4
:10315000DE682642FCD002249E8C34439C841024DA
:10316000DE682642FCD000249460547864B2002CBF
:10317000FBDB244C5460547864B2002CFBDB1C6AEB
:10318000214E344080261C621C6AB4431C62032317
:1031900093601E4B536053785BB2002BFBDB002324
:1031A000FF240B721A4A4B728B72CB72194B1A6046
:1031B000194A2B6811689A065B01C90E2340520F09
:1031C00012020B431343154A1385802342681343AD
:1031D0004360F0BD004000410004004024608000D6
:1031E0000606000000080040000C00400104010039
:1031F000B905FF7DFF03FFFFFF01000080BB0A1C34
:103200002405000000070300FFFCFFFF0306010088
:10321000006CDC02140000202060800000400042AE
:10322000FA21314B10B51868890001F0E5FA2F4BEF
:103230000138984256D82E492E4A4860C020136A59
:1032400000061B021B0A03431362002407238C6041
:103250000B608021136A09061B021B0A0B431362D1
:10326000FC22254B196A0A431A62FC22196A920150
:103270000A431A62A022196AD2020A431A62200083
:103280000021013400F076F81F2CF8D11B4B1C00F4
:103290005A7852B2002AFBDB194A5A80194B1A009D
:1032A000597EC9090129FBD0E421C90099803F2139
:1032B000D970537EDB09012BFBD0C02300205B01BA
:1032C0001361907000F024F863785BB2002BFBDB95
:1032D0000D4B0E4A6380D379DB09012BFBD04123D0
:1032E000537010BDFEE7C04614000020FFFFFF0032
:1032F00010E000E000ED00E000040040000C0040A1
:103300001E400000004000422140000000480042F2
:10331000164A00B51300517EC9090129FBD00138B6
:10332000042816D81969124A0A400F211A615A78DE
:103330008A4301F057FA0308060B0300110001222B
:103340000A435A7000BD11000322F9E7110002225E
:10335000F6E7F02311691B050B430F211361537826
:103360008B43190002230B435370EBE700400042EC
:10337000FFFFFFF0182330B51D000400454308206F
:10338000204A55192856013014D0032912D80800B4
:103390006343D156D31801F025FA02280E1B586852
:1033A000CB010221184A9B181A18403211700122D1
:1033B00082405A6030BD5868CB010621124A9B18E2
:1033C0001A1840321170012282405A609A61F1E766
:1033D0005868CB0106210C4A9B181A18403211700C
:1033E000012282405A605A61E4E75868CB01022109
:1033F000054A9B181A1840321170012282409A60C7
:10340000D8E7C04620560000004400411823F0B51C
:1034100008245843114A13181C5701341BD00126A5
:1034200035005F688356BD400D4ADB019A189068ED
:1034300005420BD10C00601E8441D2194032107835
:1034400034400336A400B04320431070044A9B1854
:10345000002901D15D61F0BD9D61FCE720560000AF
:1034600000440041182310B50824434307490020B5
:10347000CA181457013408D05B560549DB015B18A4
:10348000186A5368D8400123184010BD2056000028
:103490000044004118224243F8B52C4E0300B218F4
:1034A000127A52B2140001320ED0481C00240C28AB
:1034B0000AD801F097F9071F1F1F1F1F1F1F1F0B9F
:1034C0000B0B0B00012464422000F8BD092905D133
:1034D00000211800FFF74EFF0024F5E70A2901D16B
:1034E0000839F6E700240B29EED10A391800FFF756
:1034F00041FFE9E718225343F218556801202C00D8
:10350000F356134ADB016E089B18C9B204409E199A
:10351000002C0DD00F24303632780901224011439F
:10352000C9B25B19317040331A7810431870D3E771
:1035300032000F27303216785B19BE4331431170C9
:1035400040331A7810431870BEE7C046205600007A
:1035500000440041F7B5C31D0193002306000D0090
:10356000041D009321780A22280000F081F82E2102
:103570000700280000F047F8009B3F18DB19009374
:10358000019B01349C42EDD1F17928000A2200F020
:103590006FF8009B1818FEBD30B503AC2578044CBD
:1035A000C5710834046001714271837130BDC04639
:1035B00038590000F7B506000D000C008B18019378
:1035C000019B671B9C4207D0336821781B68300041
:1035D000984701340028F3D13800FEBD70B50400CF
:1035E00008000D0001F0B8FA2368020029005B68AA
:1035F0002000984770BD10B50B1E02D0FFF7EEFFFC
:103600000300180010BD10B503681B68984710BD73
:10361000F0B58BB06B461500002205330600DA7753
:103620000800012D00D80A2509AC290001F06AF92B
:10363000CAB2130037330700DBB2092902D81300DE
:103640003033DBB2013C2370002FEED1210030007B
:10365000FFF7D1FF0BB0F0BD10B5002A04D103680D
:10366000C9B21B68984710BDD2B2FFF7D1FFFAE785
:1036700010B5FFF7F1FF10BD10B50400FFF7F6FC21
:10368000014B1C6010BDC046180000200122024BF7
:1036900052421A607047C04618000020164A10B502
:1036A0001368591C26D0013B1360002B22D172B63F
:1036B000124B134A0433934213D9124A01211000CA
:1036C000147D0C42FCD02021148BFF319B085B0041
:1036D00021431183D3610C4B13800123027D1A42D5
:1036E000FCD0BFF34F8F094B094ADA60BFF34F8F0D
:1036F000C046FDE710BDC0461800002000200000B5
:10370000030200000040004102A5FFFF00ED00E0C1
:103710000400FA05016070479446F0B59E1E721EC3
:1037200096416246056892072F6836063A4332434F
:103730002A60072505AC24780068A40129402143AC
:1037400042680024022B00D05C03114321434160F6
:10375000F0BD30B5C0250368AD031C6812052A40D2
:103760002243C0240904A4022140114319600368C4
:103770005A6814435C6030BD0123026811680B4332
:10378000136003681A68D207FCD4DA69D207F9D447
:1037900070470223026811680B4313600268D36903
:1037A0009B07FCD4704703681A7ED20702D41A7EA6
:1037B0009207FCD57047002203685A83704703685C
:1037C000187E4007C00F70470368187EC009704715
:1037D000802302685B42117E0B43137670470368B7
:1037E000588B8007C00F704702230268518B0B4330
:1037F000538370470368187EC007C00F7047036883
:10380000188DC0B2704703681A7ED207FCD589B202
:10381000012019857047012203689A7570470122BB
:1038200003681A757047000070B5012604684B08DC
:1038300033403140256809075B070B432B43236066
:1038400004685100034800F0D7FF0138C0B220736C
:1038500070BDC046006CDC020123026811680B4396
:10386000136003681A68D207FCD4DA69D207F9D466
:1038700070470223026811680B4313600268D36922
:103880009B07FCD470470368DA699207FCD40221D5
:103890001A688A431A6070470268936A5B0A5B027F
:1038A0001943916203681A7E5207FCD5986AC0B228
:1038B000704700000368214A30B593422FD0204A58
:1038C00093422FD01F4A93422FD01F4A93422FD0AA
:1038D0001E4A93422FD01E4A93421FD10E23192213
:1038E0000121032599401B48C024016099082B4001
:1038F000AB40FC359D4089000918A4000859A84335
:10390000C0259D402B0003430B518023DB011A434C
:10391000114B5A805A7852B2002AFBDB30BD092382
:103920001422DDE70A231522DAE70B231622D7E754
:103930000C231722D4E70D231822D1E700080042F8
:10394000000C004200100042001400420018004227
:10395000001C004200E100E0000C0040F8B504004B
:103960000F0016001D00FFF7A5FF2000FFF704FF62
:103970001C21BB000B4071072268090C0B4313602C
:10398000842322689375012F1AD11021012E00D0B3
:1039900008390C4B69431868C00000F02DFF07225E
:1039A000216802408B895203DB04DB0C13438B81BB
:1039B000226803049089DB0C400B4003184390817C
:1039C000F8BDC04614000020F7B50600019308AB0F
:1039D0001F780D001400FFF73FFF3000FFF76AFF6C
:1039E000C022240592031440BA070C2717433C4316
:1039F000C0270722BF022D0433683D4025431D60C8
:103A0000019B316813401A0080239B0213434B60D3
:103A1000F7BD0020704770B50F26CB1D013902009D
:103A20003240D5B22C0000093034092A00DD0734B9
:103A30001C70013B8B42F2D170BD000010B50C0030
:103A40000B4B1868FFF7E7FF21000A4B0831186895
:103A5000FFF7E1FF2100084B10311868FFF7DBFF8B
:103A60002100064B18311868FFF7D5FF202010BD44
:103A70000CA0800040A0800044A0800048A08000EE
:103A800008B4024B9C46103808BC60473D3A000021
:103A900070473F20704713B56B460268D9710733F2
:103AA000546819000122A04716BD000070B50A260F
:103AB0000B7892B06E44023305000B703C2200215B
:103AC000300000F06AFF394801AC069038482421E4
:103AD0000790062020776846364AA1742281364A2C
:103AE000364BA281FD3AFF3A8018C17768462339E8
:103AF0000630C17768460730C17702A8C177072032
:103B0000F277032608316944C87703A9CE771021DC
:103B10002B366E443170092621851F3169440E70A1
:103B20000CA9053E0E7033212380022369440B70DB
:103B300006360DA90E7022493536A1863B216E440A
:103B4000307010A86274E27702703D3269446A44B2
:103B50000B70137040210022E37023716371A37313
:103B600041336B44218719705A702B7DC039A37083
:103B7000A37263770133DBB2A3776A7D0B200D005C
:103B800068441543C5773120684403703A23501CBC
:103B90006B441870412302320A436B441A702100AF
:103BA0004222084800F0D8FA12B070BD1001042477
:103BB000020605240904000001020000080B0000B1
:103BC00007050000181E002008B4024B9C46103860
:103BD00008BC6047AD3A000070B5027D0B790C005F
:103BE00000259A420BD10B784E78A12B09D1212EBA
:103BF00005D107221F49204800F0AEFA0135280000
:103C000070BD212BFBD1202E2BD1072219491A4838
:103C100000F0E4F9174B1A785978090211439A78A1
:103C200012041143DA7812060A439621C9008A4227
:103C30001DD1DB79DB071AD4FA20FFF71DFD002127
:103C40000D4800F0B3FA0125232ED8D1E378A278ED
:103C50001B021343094A00210748136000F0A6FA2B
:103C6000CDE7222EEFD18A78024BDA71D2E7FFF747
:103C70000DFDE4E720000020181E00201C0000209D
:103C800008B4024B9C46103808BC6047D93B000082
:103C900010B5417D006A013100F0D8F8034B1B6874
:103CA00001335A1E9341181810BDC0462800002049
:103CB00010B5417D006A023100F0DEF810BD10B58C
:103CC000417D006A023100F0A5F810BD70B50D000D
:103CD000417D0400130002312A00006A00F092F9CD
:103CE000002801D10123636070BD000010B5054CB0
:103CF00023685A1C04D103685B699847030020605D
:103D0000180010BD28000020074A0300106810B5F5
:103D1000411C03D001235B42136010BD597D186A1A
:103D2000013100F01FF9F8E728000020704700205B
:103D300070470000FA239B0010B583600F4B0022F0
:103D4000C3820300283383610D4B04004260C261CB
:103D50001800443323610830631D21622060DA7744
:103D60008323A362813BE3628033236300F040F846
:103D70002100103100F010F8200010BD03020000F7
:103D80004459000010B502490248FFF7D3FF10BDA7
:103D9000181E0020B01D0020F0B58C794578030076
:103DA0002A190020072A1FDC5A68824216D159605E
:103DB0001A78C8790A7112184D711A7000220B4DC9
:103DC000D0B284420FD98F6858789600F759860090
:103DD0000130775101325870F2E70200D0680028B4
:103DE000FBD1D160E4E70120F0BDC046F01D00200A
:103DF0000121064A10B5136805480B4004D1802400
:103E0000640004804360116010BDC046E41D0020C2
:103E1000E81D00200B4BCAB20B488901C918530199
:103E2000C318596199690832890B8903996103683C
:103E300052019A180223D3715179823B0B4353717B
:103E40007047C046401E0020C8220020084B8A0050
:103E5000D05810B5002803D003689B68984710BD60
:103E6000C9B2044B4901591888688004800CF6E7F0
:103E70001C1E0020C822002010B50C00FFF7E6FF32
:103E800000280CD0064BE4B21B68083464011C19EE
:103E9000802362795B42134363710223E37110BD97
:103EA000C8220020F0B51C002A4B85B01B68070013
:103EB0000D000292002B4AD0274B8A00D0580028D0
:103EC00008D0036822005B6802999847040020002C
:103ED00005B0F0BD3800FFF7B9FF844204D92900CE
:103EE0003800FFF7B3FF04000121EBB21B4E039330
:103EF0005B010193F21893689B0B9B039360019AFB
:103F0000336802989B18FF335A7A0A435A72144B4B
:103F1000A901C918220000F037FD002CD7D02900D4
:103F20003800FFF793FF0028D1D14021039B32686E
:103F300008335B01D3181879014319710121D97134
:103F4000019BD318FF339A7A0A439A72BFE7012480
:103F50006442BCE7C42200201C1E0020C8220020AE
:103F60000020002013B56B46DC1D22000123FFF763
:103F700099FF012801D1207816BD01204042FBE7BE
:103F800070B5CBB2124A13485C0189018918021935
:103F900051609168104D08330D4080214903294339
:103FA000402591609168890B8903916001685A01ED
:103FB0008A1816793543157195796D06FCD55B0124
:103FC000C918CB79DB07FCD500198068C0B270BD79
:103FD00000200020C8220020FF3F00F070B50D0037
:103FE00000211400FFF7CCFFA04200D920000023DD
:103FF0000349A34203D0CA5CEA540133F9E770BD18
:1040000000200020F0B51E003A4B85B01B680F0061
:104010000192002B35D08023DB019E4231D8002550
:10402000354B8A01D3180293002E2CD0334B1B68DA
:104030000393FF233B401C0000930834039B64015F
:104040001C19A379DB0921D02D4B2E49186800F0EB
:10405000D3FB2D4B1721584300F0CEFB2B4BE279BD
:10406000920713D4DA5D002A01D10138F7D2012278
:10407000DA55009B5A01214B9B189A69920B9203C7
:104080009A6101256D42280005B0F0BD00221F4B4A
:104090003400DA553F2E09D9009B40245A01174BB2
:1040A0009B188022996912060A439A61220001999D
:1040B000029800F069FC009BA1045A010F4B890C87
:1040C0009B18029A2D195A619A69361B920B92031A
:1040D0000A439A61009B039A08335B01D3180222BA
:1040E000DA715979823A0A435A71019B1B1901937B
:1040F0009AE7C046C4220020401E0020C8220020AB
:104100001400002040420F0070110100381E0020F2
:1041100070B50D001C000D4BAE01F61811003000FB
:10412000220000F031FCEDB209496D014D196E61BC
:10413000AB69084A20001340AB61AB69A2049B0B3A
:10414000920C9B031343AB6170BDC046401E002020
:10415000C8220020FF3F00F0F7B5104B01901B78FC
:104160000F001500002B0CD10D4B16001C78002CF5
:1041700009D00C4E0C4834882018641900F004FC57
:1041800034802800FEBD002EFBD03A1933000021F8
:104190000198FFF7BDFF2418361AF4E7C02100206C
:1041A000C1220020C2220020C1210020CBB204493C
:1041B0005B01C9188B699B0B9B038B617047C046E1
:1041C000C8220020014B024A1A607047C822002012
:1041D000005000410120704710B50368014A1B6A76
:1041E000984710BD130400000300FC33D9699A6995
:1041F000914203D0DB69C018007D70470120404226
:10420000FBE710B504000069FFF7B6FA22000023AF
:10421000FC329361D36186229200A4186360A3608C
:1042200010BDF02001403039484248417047F0232A
:104230001B011940802306209B0099420AD00133BC
:10424000FF330130994205D0802302385B00994248
:1042500000D0002070470F2001400020012903D02A
:104260000239481E8141481C704700008923F0B57F
:10427000182685B002919B000400C05C3300082121
:104280004343324D1700EB185956FFF703F9304BF3
:104290000821E05C33004343EB185956FFF7FAF866
:1042A0002C4BE25C0393022A09D11133E05CFF2816
:1042B00005D008214643AE197156FFF7EBF88A2660
:1042C000B600A05DFF2819D00121FFF753F818228E
:1042D000A35D21495A43AB56AD18DB0158188B2119
:1042E000890060501D4901225B188C2189006350B0
:1042F00069688A408D21890062501A600122029B00
:1043000011002069FFF72AFB39002000FFF78FFF1B
:10431000390005002000FFF79EFF3900060020004D
:10432000FFF77FFF33000090290020690122FFF78B
:10433000F3F90B4B2069E25C039BE15CFFF709FAA0
:104340002069FFF726FA05B0F0BDC04620560000F0
:1043500025020000270200001844004114440041D7
:1043600026020000802210B504005200002100F057
:1043700014FB23000022FC335A6020009A6010BD19
:10438000F0B585B01D000AAB1B78040000930BABA1
:104390001B78160001930CAB1B780F0002930DAB3A
:1043A0001B78039300234360FA239B008360124B26
:1043B000083303601430FFF7D5FF20001D30FF30B5
:1043C000FFF7D0FF89236A469B002761E6540B4B19
:1043D0001278E5540A4B2000E2546A46094B1279E0
:1043E000E2546A46127A0133E2546A46127B103371
:1043F000E25405B0F0BDC0469C5900002502000003
:104400002602000027020000F7B51D0008AB1B784C
:104410000400009309AB1B7816000193002343604E
:10442000FA239B008360114B0F00083303601430A4
:10443000FFF798FF20001D30FF30FFF793FF89231F
:104440006A469B002761E654094B1278E554094BF4
:104450002000E2546A46084B1279E2548A22293B32
:10446000FF3B9200A3541032A354FEBD9C590000A0
:104470002502000026020000270200000300FC3392
:1044800058689B68C01A01D50130FF30704710B5DD
:10449000040020001D30FF30FFF7F0FF0028F8D1A6
:1044A0002069FFF780F910BD10B51430FFF7E6FF63
:1044B00010BD0300FC3359689A68914204DB5A68C6
:1044C0009868801AFF30704798685B68C01A013896
:1044D000F9E710B51D30FF30FFF7EBFF10BD10B549
:1044E00004000069FFF77BF9002805D02069FFF779
:1044F00086F92069FFF778F92069FFF760F900284D
:1045000020D02069FFF77BF92200FC329369D16942
:104510000133DBB28B4203D0916961180875936156
:104520008A239B00E35CFF2B0CD020001430FFF7A4
:10453000C0FF092806DC8B238D229B009200E358E4
:10454000A2581A602069FFF755F900281AD02000F8
:104550001D30FF30FFF792FF002822D086239B00FA
:10456000E31899685A68914218D08E219A684900D8
:10457000A218515C9A680132D2B29A60C9B220691D
:10458000FFF741F92069FFF71FF9002805D02069DE
:10459000FFF71EF92069FFF70EF910BD012149420E
:1045A000ECE72069FFF73BF9ECE7000070B5040089
:1045B00000690D00FFF71EF900283ED1FF26862373
:1045C0009B00E3185A689968013232408A4223D12D
:1045D000EFF31083DB0710D41E4B5B68DB05DB0DAC
:1045E000EDD0103B5BB2002B10DA0F221340083BDA
:1045F0009B08194A9B009B181B682069FFF7FAF873
:104600000028DCD02000FFF76AFFD8E79B08C03302
:10461000124A9B009B58F0E75A68013216409A688C
:10462000964205D08E215A684900A21855545E6002
:104630002069FFF7F0F8012070BD20001D30FF3029
:10464000FFF71CFF0028B9D129002069FFF7DBF82C
:10465000F1E7C04600ED00E01CED00E000E100E005
:10466000030070B5FC33D9699A69040091421AD0ED
:10467000DA698218157DDA690132D2B2DA618A23E9
:104680009B00E35CFF2B0CD020001430FFF711FFE0
:104690000A2806DD8C238D229B009200E358A25845
:1046A0001A60280070BD01256D42E8E710B50400CE
:1046B000006800F05FF9200010BD10B5040000682C
:1046C000002801D000F056F900232360A360636046
:1046D00010BD70B504000D000068013100F00EFA45
:1046E000031E01D0012028C470BD036810B504006A
:1046F000002B04D043688B4201D3012010BD200061
:10470000FFF7E7FF0028F9D0A368002BF5D1226856
:104710001370F2E770B50E00110004001500FFF7EA
:10472000E4FF002804D12000FFF7C7FF200070BD80
:10473000A5603100206800F007FAF7E7002370B5A4
:1047400004000D00036043608360994207D00800B5
:1047500000F002FA290002002000FFF7DBFF200032
:1047600070BD70B5050008000C0000F0F5F92100DF
:1047700002002800FFF7CEFF70BD10B5040000292D
:1047800003D0FFF7EEFF200010BDFFF796FFFAE71A
:10479000026810B50B68002A13D0002B0CD1816879
:1047A0001800002907D0107805E08968100000295A
:1047B00001D01878404210BD1900100000F0BAF97D
:1047C000F9E7002BF1D11800F5E710B5FFF7E0FF8E
:1047D000C00F10BD0B0010B50100180000F098F8D4
:1047E00010BD000002B4714649084900095C490047
:1047F0008E4402BC7047C046002243088B4274D3EB
:1048000003098B425FD3030A8B4244D3030B8B42D1
:1048100028D3030C8B420DD3FF22090212BA030CDA
:104820008B4202D31212090265D0030B8B4219D3BB
:1048300000E0090AC30B8B4201D3CB03C01A5241DB
:10484000830B8B4201D38B03C01A5241430B8B4223
:1048500001D34B03C01A5241030B8B4201D30B030C
:10486000C01A5241C30A8B4201D3CB02C01A524133
:10487000830A8B4201D38B02C01A5241430A8B42F6
:1048800001D34B02C01A5241030A8B4201D30B02DF
:10489000C01A5241CDD2C3098B4201D3CB01C01AF9
:1048A000524183098B4201D38B01C01A5241430903
:1048B0008B4201D34B01C01A524103098B4201D3F1
:1048C0000B01C01A5241C3088B4201D3CB00C01A5E
:1048D000524183088B4201D38B00C01A52414308D6
:1048E0008B4201D34B00C01A5241411A00D20146FB
:1048F000524110467047FFE701B5002000F006F86E
:1049000002BDC0460029F7D076E770477047C04621
:1049100010B5040004481300002804D00A00022047
:10492000210000E000BF10BD0000000070B50026AF
:104930000C4D0D4C641BA410A64209D1002600F0BA
:1049400051F90A4D0A4C641BA410A64205D170BD52
:10495000B300EB5898470136EEE7B300EB589847A1
:104960000136F2E790000020900000209000002027
:10497000D000002010B5034B0100186800F016F8B5
:1049800010BDC0462C000020002310B59A4200D173
:1049900010BDCC5CC4540133F8E7030012189342F5
:1049A00000D1704719700133F9E7000070B50500B8
:1049B000002910D00C1F2368002B00DAE41828000F
:1049C00000F0D1F81D4A1368002B05D16360146014
:1049D000280000F0C9F870BDA34209D92168601809
:1049E0008342F3D118685B6841182160EEE7130039
:1049F0005A68002A01D0A242F9D919685818A04271
:104A00000BD120680918581819608242E0D110684B
:104A10005268411819605A60DAE7A04202D90C23A3
:104A20002B60D5E721686018824203D11068526874
:104A30004118216062605C60CAE7C046CC23002058
:104A4000032370B5CD1C9D43083506000C2D1ED2E6
:104A50000C25A9421DD8300000F085F8254A1468BD
:104A60002100002919D1244C2368002B03D13000E8
:104A700000F04EF820602900300000F049F8431C97
:104A80002BD10C233000336000F06EF803E0002DD2
:104A9000DFDA0C233360002070BD0B685B1B19D478
:104AA0000B2B03D90B60CC18256003E04B688C42BC
:104AB0000DD11360300000F057F8200007220B30B2
:104AC000231D9043C31AE7D05A42E250E4E76360E3
:104AD0000C00EFE70C004968C3E70323C41C9C43A8
:104AE000A042E1D0211A300000F012F8431CDBD1C3
:104AF000C7E7C046CC230020D023002010B5034BCD
:104B00000A000100186800F030F810BD2C000020E9
:104B1000002370B5064C05000800236000F054F82F
:104B2000431C03D12368002B00D02B6070BDC0460E
:104B3000D823002002780B78002A03D001300131FD
:104B40009A42F7D0D01A704703000A7801311A70E0
:104B50000133002AF9D170470023C25C0133002AD7
:104B6000FBD1581E704770477047F8B507000D001D
:104B70001600002905D11100FFF762FF0400200094
:104B8000F8BD002A03D1FFF711FF3400F7E700F06A
:104B900012F82C00B042F2D231003800FFF750FF7B
:104BA000041EECD029003200FFF7EEFE2900380089
:104BB000FFF7FCFEE3E70B1F1B68181F002B01DA51
:104BC0000B58C01870470000044A1368002B00D12E
:104BD000034B1818106018007047C046D4230020FB
:104BE000DC230020F8B5C046F8BC08BC9E467047E0
:104BF000F8B5C046F8BC08BC9E46704700000000EF
:104C0000963007772C610EEEBA51099919C46D07D9
:104C10008FF46A7035A563E9A395649E3288DB0E34
:104C2000A4B8DC791EE9D5E088D9D2972B4CB60917
:104C3000BD7CB17E072DB8E7911DBF906410B71DF4
:104C4000F220B06A4871B9F3DE41BE847DD4DA1A2D
:104C5000EBE4DD6D51B5D4F4C785D38356986C135E
:104C6000C0A86B647AF962FDECC9658A4F5C0114D7
:104C7000D96C0663633D0FFAF50D088DC8206E3BB5
:104C80005E10694CE44160D5727167A2D1E4033CC7
:104C900047D4044BFD850DD26BB50AA5FAA8B535EE
:104CA0006C98B242D6C9BBDB40F9BCACE36CD832DD
:104CB000755CDF45CF0DD6DC593DD1ABAC30D92684
:104CC0003A00DE518051D7C81661D0BFB5F4B42187
:104CD00023C4B3569995BACF0FA5BDB89EB8022884
:104CE0000888055FB2D90CC624E90BB1877C6F2F09
:104CF000114C6858AB1D61C13D2D66B69041DC7604
:104D00000671DB01BC20D2982A10D5EF8985B171DC
:104D10001FB5B606A5E4BF9F33D4B8E8A2C907788B
:104D200034F9000F8EA8099618980EE1BB0D6A7F22
:104D30002D3D6D08976C6491015C63E6F4516B6BDB
:104D400062616C1CD83065854E0062F2ED95066C90
:104D50007BA5011BC1F4088257C40FF5C6D9B06505
:104D600050E9B712EAB8BE8B7C88B9FCDF1DDD6262
:104D7000492DDA15F37CD38C654CD4FB5861B24DC8
:104D8000CE51B53A7400BCA3E230BBD441A5DF4A92
:104D9000D795D83D6DC4D1A4FBF4D6D36AE9694355
:104DA000FCD96E34468867ADD0B860DA732D044400
:104DB000E51D03335F4C0AAAC97C0DDD3C7105502B
:104DC000AA41022710100BBE86200CC925B56857D2
:104DD000B3856F2009D466B99FE461CE0EF9DE5E1B
:104DE00098C9D9292298D0B0B4A8D7C7173DB359CC
:104DF000810DB42E3B5CBDB7AD6CBAC02083B8ED5D
:104E0000B6B3BF9A0CE2B6039AD2B1743947D5EA69
:104E1000AF77D29D1526DB048316DC73120B63E398
:104E2000843B64943E6A6D0DA85A6A7A0BCF0EE4F7
:104E30009DFF099327AE000AB19E077D44930FF0B2
:104E4000D2A3088768F2011EFEC206695D5762F7A9
:104E5000CB67658071366C19E7066B6E761BD4FEE6
:104E6000E02BD3895A7ADA10CC4ADD676FDFB9F9C3
:104E7000F9EFBE8E43BEB717D58EB060E8A3D6D685
:104E80007E93D1A1C4C2D83852F2DF4FF167BBD1B3
:104E90006757BCA6DD06B53F4B36B248DA2B0DD8B6
:104EA0004C1B0AAFF64A0336607A0441C3EF60DF59
:104EB00055DF67A8EF8E6E3179BE69468CB361CB42
:104EC0001A8366BCA0D26F2536E2685295770CCC67
:104ED00003470BBBB91602222F260555BE3BBAC5A8
:104EE000280BBDB2925AB42B046AB35CA7FFD7C299
:104EF00031CFD0B58B9ED92C1DAEDE5BB0C2649B8A
:104F000026F263EC9CA36A750A936D02A906099CBC
:104F10003F360EEB8567077213570005824ABF952F
:104F2000147AB8E2AE2BB17B381BB60C9B8ED292B2
:104F30000DBED5E5B7EFDC7C21DFDB0BD4D2D38609
:104F400042E2D4F1F8B3DD686E83DA1FCD16BE817C
:104F50005B26B9F6E177B06F7747B718E65A08884D
:104F6000706A0FFFCA3B06665C0B0111FF9E658FDE
:104F700069AE62F8D3FF6B6145CF6C1678E20AA088
:104F8000EED20DD75483044EC2B30339612667A70E
:104F9000F71660D04D476949DB776E3E4A6AD1AE5D
:104FA000DC5AD6D9660BDF40F03BD83753AEBCA9EC
:104FB000C59EBBDE7FCFB247E9FFB5301CF2BDBD59
:104FC0008AC2BACA3093B353A6A3B4240536D0BA62
:104FD0009306D7CD2957DE54BF67D9232E7A66B3FF
:104FE000B84A61C4021B685D942B6F2A37BE0BB4AC
:104FF000A18E0CC31BDF055A8DEF022D312E342EEE
:1050000031002F66732F5550444154452E42494E6E
:105010002E4C5A5353002F66732F5550444154451C
:105020002E42494E00000000000000000000000079
:105030000000000000000000000000000000000070
:105040000000000000000000000000000000000060
:105050000000000000000000000000000000000050
:105060000000000000000000000000000000000040
:105600000800000010000000200000004000000022
:105610008000000000010000000200000004000003
:10562000010000001700000003000000040000005B
:10563000FF00FFFFFFFFFF00010000001600000059
:105640000300000004000000FF00FFFFFFFFFF0059
:10565000010000000A000000080000001C0000001B
:10566000FF00000500050A00010000000B0000001B
:10567000080000001C000000FF00010501050B00F0
:105680000000000007000000080000000400000007
:105690000700FFFFFFFFFF00000000000500000003
:1056A000080000001C000000050001000100FF00D0
:1056B0000000000004000000080000001C000000C2
:1056C000040000000000FF000000000006000000D1
:1056D00008000000040000000600FFFFFFFFFF00BD
:1056E000000000001200000008000000040000009C
:1056F000FF00FFFFFFFFFF0000000000140000009C
:10570000080000002C000000FF000200020004005E
:105710000000000015000000080000002C00000040
:10572000FF0003000300050000000000100000005F
:10573000020000001C000000FF0000020002000048
:105740000000000013000000020000001C00000028
:10575000FF0001030103FF00000000001100000032
:105760000200000004000000FF00FFFFFFFF010037
:105770000000000002000000010000000600000020
:105780000000FFFFFFFFFF0001000000020000001B
:1057900001000000040000000A00FFFFFFFF0200FC
:1057A000000000000B000000010000001C000000D1
:1057B000130001010101FF00000000000A000000C9
:1057C000010000001C000000120000010001FF00A9
:1057D00001000000080000000300000006000000B7
:1057E0000200FFFFFFFFFF000100000009000000B2
:1057F0000300000018000000030001040104090078
:10580000000000000900000001000000040000008A
:105810001100FFFFFFFFFF00010000000300000078
:1058200001000000040000000B00FFFFFFFF030069
:10583000000000000C00000002000000000000005A
:10584000FF00FFFFFFFFFF00000000000D00000051
:105850000200000000000000FF00FFFFFFFFFF004C
:10586000000000000E000000080000000000000022
:10587000FF00FFFFFFFFFF00000000000F0000001F
:105880000200000000000000FF00FFFFFFFFFF001C
:10589000000000001B0000000800000000000000E5
:1058A000FF00FFFFFFFF0F000000000008000000E6
:1058B0000800000004000000FF00FFFFFFFFFF00E2
:1058C000000000001C0000000800000004000000B0
:1058D000FF00FFFFFFFFFF000000000016000000B8
:1058E000020000001C000000FF000004000406008D
:1058F0000000000017000000020000001C00000073
:10590000FF0001040104070000000000180000006F
:105910000600000000000000FF00FFFFFFFFFF0087
:105920000000000019000000060000000000000058
:10593000FF00FFFFFFFFFF0000000000000000006D
:10594000553500000000000000000000973A0000FC
:10595000CD3C0000933A0000B13C0000913C0000B7
:10596000093D0000ED3C0000BF3C0000AD3A0000E6
:10597000133A0000D93B00003D3A0000913A000084
:10598000F0FFFFFF00000000813C0000C93B000069
:105990002F3D00002D3D0000813A00000000000076
:1059A00000000000AD450000B5350000D344000004
:1059B0008F440000A944000061460000E941000056
:1059C000D94100006D42000003420000D5410000B3
:1059D00000000000000000000000000000000000C7
:1059E00000000000000000000000000000000000B7
:1059F00000000000000000000000000000000000A7
:105A00000000000000000000000000000000000096
:105A10000000000000000000000000000000000086
:105A20000000000000000000000000000000000076
:105A300000000000000000001650000002500000AE
:105A40004000000007050A0040420F00FFFFFFFF73
:105A5000FFFFFFFF00C2010000000800FFFFFFFF83
:105A60003000002000000000F0590000105A000033
:105A7000D0590000000000000000000000000000FD
:105A80000000000000000000000000000000000016
:105A90000000000000000000000000000000000006
:105AA00000000000000000000000000000000000F6
:105AB00000000000000000000000000000000000E6
:105AC00000000000DD200000252400004526000025
:105AD0006D26000091260000A9260000C1260000C6
:105AE000212700003927000095270000A92B00007E
:105AF000C12B0000FD2D0000992E0000853D000007
:105B0000C5410000B52000000000000000000000BA
:105B10000000000000000000000000000000000085
:105B20000000000000000000000000000000000075
:105B30000000000000000000000000000000000065
:105B40000000000000000000000000000000000055
:1060000000800020990C0200830C0200830C020027
:106010000000000000000000000000000000000080
:10602000000000000000000000000000830C0200DF
:106030000000000000000000830C0200ED0C0200D4
:10604000830C0200830C020009D80100A5D50100D1
:106050002D020200830C0200830C0200850C02005A
:10606000830C0200830C0200830C020051E2010049
:1060700041E20100B56C010031E20100830C020035
:10608000830C0200830C0200830C0200830C0200CC
:1060900000000000830C0200830C0200830C02004D
:1060A000830C0200830C0200830C0200830C0200AC
:1060B0000000000010B5064C2378002B07D1054BDB
:1060C000002B02D0044800E000BF0123237010BD64
:1060D000682900200000000070E40200044B10B5A5
:1060E000002B03D00349044800E000BF10BDC046A8
:1060F000000000006C29002070E402004069704735
:10610000807C704781747047002070470020704782
:106110000300593058331B7800785840704703000B
:1061200059331B78583003707047030058331B787D
:1061300059300370704770B5051D0400E96F006F9A
:106140001CF0A2FF002817D00435E96F606F1CF027
:106150009BFF002810D023000C33D96FA06F1CF0D8
:1061600093FF002808D0230070348033187B237BF2
:10617000C01A43425841C0B20123584070BD026F5B
:10618000031DDA67426F0433DA67826F0433DA671C
:106190007030027B74331A73704713B56B46DA1D87
:1061A000036811701C69C1680123A04716BD10B5B2
:1061B0001300026814690A00C168A04710BD0020DE
:1061C00070477047704701207047036F032B01D160
:1061D00000230367006F704701237430037070471A
:1061E0000123703003707047704710B58368040056
:1061F000002B02D0032201009847200010BD7047F9
:1062000070477047704770477047704770477047D6
:10621000704770477047704701207047C8204000A2
:106220007047000010B50121040003201BF05AF84C
:1062300080231B01E361014B236210BD90000060CD
:1062400010B5040004F008FD236800219B692000BC
:10625000984710BD10B50400064818F0BDFC002892
:1062600006D000200122236F013B9A424041C0B278
:1062700010BDC0468C50002008B4024B9C46043828
:1062800008BC60475562000010B504300CF09CF863
:1062900010BD10B504300CF097F810BD70B50400B7
:1062A00004300BF025FF236805009B692000984708
:1062B000002801D101232367280070BD70B50400B8
:1062C00004300BF015FF236805009B6920009847F8
:1062D000002801D101232367280070BD10B50430C8
:1062E0000BF0F8FD10BD10B504300BF0F3FD10BD40
:1062F000036F10B50400032B0DD003685B6A984749
:10630000002803D0236820005B699847201D0CF00B
:1063100039F903232367206F10BD37B56B46DA1DAB
:106320000223051D13700321013B040028000BF01C
:1063300075FE28000CF026F90CF0BAFD00210CF0D7
:10634000EAFD0023236737BD70B5036F0400032BFC
:1063500018D0002B02D003685B6998470A4B1D6870
:106360002B6828009B6D98472B682800DB689847AE
:10637000201D0CF007F90CF09BFD00210CF0CBFD6B
:1063800003232367206F70BDE4D4020010B5803072
:106390000122024910F03BFF10BDC046E2DE0200C0
:1063A00008B4024B9C46043808BC60478D6300006B
:1063B00070B5012210490500803010F028FF1AF056
:1063C000A3FC0E4B06001C6823682000DB6998477D
:1063D000236820001B6998471AF096FC801BC72889
:1063E000F6D9281D0CF0CEF80CF062FD01210CF05E
:1063F00092FD00232B6770BDE2DE0200E4D40200B0
:1064000010B504008C3010F01BFF002806D00020CF
:106410000122236F013B9A424041C0B210BD08B433
:10642000024B9C46043808BC6047C046016400002B
:1064300010B58C30012310F0DAFE10BD08B4024B09
:106440009C46043808BC604731640000F8B507007A
:1064500080370400380010F0ACFEAC340500380082
:10646000266810F0B4FE0023864203D223685A1C2B
:106470002260EB5C1800F8BD08B4024B9C4604385F
:1064800008BC60474D64000010B5803010F09FFEDE
:1064900010BD08B4024B9C46043808BC6047C04697
:1064A0008964000010B50400803010F0C0FE0028A0
:1064B00002D00023AC34236010BD08B4024B9C46CC
:1064C000043808BC6047C046A56400001FB504003E
:1064D000064901A81AF0F2F9210001AA5931200059
:1064E00008F0ECF801A81AF09AF91FBDE2DE0200EC
:1064F0007FB5030004000E0058331D78084901A839
:106500001AF0DCF9330001AA2900200007F06CFF23
:10651000040001A81AF083F9200004B070BDC04641
:10652000E2DE02001FB504001A4901A81AF0C6F9FC
:10653000210001AA8C31200008F0C0F801A81AF04F
:106540006EF9154901A81AF0B9F9210001AA8031A4
:10655000200008F00DF901A81AF061F90F4901A80F
:106560001AF0ACF9210001AA8431200008F000F9EA
:1065700001A81AF054F90A4901A81AF09FF921005C
:1065800001AA8831200008F0F3F801A81AF047F9B1
:106590001FBDC046ACAE0200B0AE0200B4AE0200F9
:1065A000B8AE02000300F0B505000F007C3385B0E3
:1065B0001C78284901A81AF081F921003B0001AAA2
:1065C000280007F011FF8026040001A81AF027F91F
:1065D0003606B44203D1204C200005B0F0BD002C9B
:1065E000FAD12C6F1D4901A81AF068F9211C3B0053
:1065F00001AA280007F060FF040001A81AF00FF9B3
:10660000B442E8D0002CE7D16C6F154901A81AF00C
:1066100055F9211C3B0001AA280007F04DFF04009A
:1066200001A81AF0FCF8B442D5D0002CD4D1AC6F3C
:106630000C4901A81AF042F9211C3B0001AA2800CC
:1066400007F03AFF040001A81AF0E9F8B442C3D1F8
:10665000C1E7C046ACAE020002030000B0AE0200CB
:10666000B4AE0200B8AE0200F8B5036804005B6A7D
:106670000F0041699847E37C0500002B06D0236892
:1066800062695E6861683B002000B04723682900AA
:106690009B6A20009847F8BDF8B50400006F0328F6
:1066A0002ED0244B261D186803681B699847224D7D
:1066B0002F68012F25D0022F09D1236F012B06D07F
:1066C000012323670CF0F4FB39000CF024FC0027B5
:1066D0002F60256F012D0FD130000BF0C7FE431C3A
:1066E00020D0022824D0831C05D120002A00134981
:1066F000803010F08CFD256730000BF0F0FB206F30
:10670000F8BD20003A000D49803010F080FD3000C7
:106710000BF038FF0CF0CCFB39000CF0FCFB002335
:106720002367D4E7236820005B6998473D00E2E7D0
:106730000500E0E7E4D40200B8290020E2DE020010
:106740007047031DDA6F0433DB6F02674367030092
:106750000C33DB6F836703008030027B70331A7366
:106760007047000010B50400024B08C01AF057F83B
:10677000200010BD80A5020010B50400FFF7F2FF55
:1067800020001AF0BBFB200010BD000010B5040073
:10679000024B0360FFF7E6FF200010BDD0A502000A
:1067A00010B50400FFF7F2FF20001AF0A7FB20004D
:1067B00010BD000010B50400024B036004F024FA81
:1067C000200010BD5CA7020010B50400FFF7F2FF27
:1067D00020001AF093FB200010BD000010B504004B
:1067E000024B0360FFF7E6FF200010BD98A70200F0
:1067F00010B50400FFF7F2FF20001AF07FFB200025
:1068000010BD000010B50400024B0360FFF7E6FF67
:10681000200010BDD4A7020010B50400FFF7F2FF5E
:1068200020001AF06BFB200010BD000010B5040022
:10683000024B08C019F0F3FF200010BD80A5020034
:1068400010B50400FFF7F2FF20001AF057FB2000FC
:1068500010BD000010B50400024B0360FFF7E6FF17
:10686000200010BDF8A5020010B50400FFF7F2FFEC
:1068700020001AF043FB200010BD70B51600C2685E
:1068800004009D188268002095420AD85818824258
:1068900005D3626850181A0031001FF08EFE0120E7
:1068A000E56070BD10B5017804F02CF910BD000052
:1068B000F0B587B0070001918068654902920393A3
:1068C0001CF066FE6249041C78681CF061FE011C25
:1068D000201C1DF035F8041C38681FF06FF90022E9
:1068E0005C4B1DF0E9FE00225B4B1AF077FF1FF0B6
:1068F000B7F9051C1FF062F980230022DB051AF0AE
:106900006DFF0022554B1EF053FD490002004B085D
:10691000002052491EF04CFD04900591201C1FF0F0
:106920004DF902000B00049805991EF0CFFA1FF0F4
:1069300097F947490490061CB8681CF029FE211CF1
:106940001DF030F90021071C281C1CF0C1FB002899
:1069500006D0FE21281C89051CF09CFB002844D190
:10696000FE21281C89051CF0B3FB002806D08021DD
:10697000281CC9051CF08EFB002838D18021281C5A
:10698000C9051CF0A5FB002805D03549281C1CF0C2
:1069900081FB00284FD13249281C1CF099FB0028AC
:1069A00006D08121281CC9051CF074FB002845D1A4
:1069B0008121281CC9051CF08BFB002805D0294922
:1069C000281C1CF067FB00283BD12649281C1CF022
:1069D0007FFB002837D02449281C1CF05BFB0028D3
:1069E00031D0351C261C002402E0261C049C002506
:1069F000391C301C1CF032FC1C491CF0A1FF1AF0A1
:106A0000B1FE019B391C1870201C1CF027FC174993
:106A10001CF096FF1AF0A6FE029B391C1870281C69
:106A20001CF01CFC11491CF08BFF1AF09BFE039B11
:106A3000187007B0F0BD351C0026D9E7251C341CA2
:106A4000FAE7251CCFE70024251C261CD0E7C0460A
:106A50000000C84200004E40000018400000F03F17
:106A6000000040400000A0400000C04000007F4304
:106A7000F0B52F4D89B0A86F1DF058FA10240021F1
:106A80002C4F2D4E3B683060DA0F9C424A41D2B207
:106A90008A4245D00B22C30F82424B41DBB28B426C
:106AA0003ED004AC220070350BCD0BC22B68200009
:106AB00013606B466A465D1C023203332900FFF700
:106AC000F7FE64223B68366853436A469E19D278C3
:106AD0002B789A4226D2194BF6181AF015F9184B52
:106AE0001B68012B02D0174B834219D2164901A80B
:106AF00019F0E4FE0A223100200019F0FEFE210008
:106B000001A819F0BCFF0100104819F02FFF200068
:106B100019F085FE01A819F082FE01220C4B1A70B3
:106B200009B0F0BD6A4692789A42D6D97642D4E747
:106B3000042E0020DC290020D82900201027000086
:106B4000A0350020C8AF0000B5A90200942E002097
:106B5000A02E0020F0B589B004AC2200284B703381
:106B600023CB23C21B68200013606B469E1C5D1C58
:106B7000320003332900FFF79BFE2A783378101C7C
:106B80009A4200D2181C6B46DB78C2B29A4200D2FD
:106B9000181CC0B21DF0EAF91FF010F8194A1A4B80
:106BA0001DF08AFD1AF01EFD012206000F00174B92
:106BB000174920001A7019F081FE390030001EF0CC
:106BC0005BFF0A22010001A819F097FE01A920002D
:106BD00019F055FF01000F4819F0C8FE01A819F07F
:106BE0001EFE200019F01BFE6B462978DA780A4B4E
:106BF000914203D300221A7009B0F0BD0122FAE7D6
:106C0000E83300206666666666660440A02E0020B3
:106C1000B8A90200942E0020A82E002010B5040070
